:100000000C9472000C9493000C9493000C94930045
:100010000C9493000C9493000C9493000C94930014
:100020000C9493000C9493000C9493000C94930004
:100030000C9493000C94A4000C9493000C949300E3
:100040000C9493000C9493000C9493000C949300E4
:100050000C9493000C9493000C9493000C949300D4
:100060000C9493000C9493000C9493000C949300C4
:100070000C9493000C9493000C9493000C949300B4
:100080000C9493000C9493000C9493000C949300A4
:100090000C9493000C9493000C9493000C94930094
:1000A0000C9493000C9493000C9493000C94930084
:1000B0000C9493000C9493000C9493000C94930074
:1000C0000C9493000C9493000C9493000C94930064
:1000D0000C9493000C9493000C9493000C94930054
:1000E0000C94930011241FBECFEFD1E2DEBFCDBF31
:1000F00000E00CBF12E0A0E0B2E0ECE7F2E000E0CC
:100100000BBF02C007900D92A030B107D9F712E0E3
:10011000A0E0B2E001C01D92A430B107E1F70E9457
:1001200032010C943C010C94000082E08093B000FA
:1001300094E09093B10099EF9093B4008093700095
:1001400078941092B20008951F920F920FB60F92FA
:1001500011242F938F939F9380910002909101021D
:1001600001969093010280930002809102028F5FBA
:100170008093020280910302882361F4809100023F
:1001800090910102885E934029F4789A10920102BE
:100190001092000280910302813061F4809100028C
:1001A00090910102845F914029F410920102109213
:1001B0000002799A80910302823061F480910002FA
:1001C000909101028A3F910529F410920102109248
:1001D00000027A9A9F918F912F910F900FBE0F90EE
:1001E0001F90189580910202863010F480E00895E7
:1001F0001092020281E0089580910202863010F48C
:1002000080E003C01092020281E07B992AC088231B
:1002100039F17B990BC080910302882339F481E086
:100220008093030210920102109200027B990BC08E
:1002300080910302813039F482E0809303021092AE
:100240000102109200027B990CC08091030282305F
:1002500041F41092030210920102109200020895DC
:10026000FFCF089580B3876080BB80988B9A0E94EF
:0C02700095000E94FC00FDCFF894FFCF29
:00000001FF
