:100000000C9472000C9493000C9493000C94930045
:100010000C9493000C9493000C9493000C94930014
:100020000C9493000C9493000C9493000C94930004
:100030000C9493000C94AB000C9493000C949300DC
:100040000C9493000C9493000C9493000C949300E4
:100050000C9493000C9493000C9493000C949300D4
:100060000C9493000C9493000C9493000C949300C4
:100070000C9493000C9493000C9493000C949300B4
:100080000C9493000C9493000C9493000C949300A4
:100090000C9493000C9493000C9493000C94930094
:1000A0000C9493000C9493000C9493000C94930084
:1000B0000C9493000C9493000C9493000C94930074
:1000C0000C9493000C9493000C9493000C94930064
:1000D0000C9493000C9493000C9493000C94930054
:1000E0000C94930011241FBECFEFD1E2DEBFCDBF31
:1000F00000E00CBF12E0A0E0B2E0EEEFF2E000E0C2
:100100000BBF02C007900D92A230B107D9F712E0E1
:10011000A2E0B2E001C01D92A730B107E1F70E9452
:1001200047010C947D010C94000052985A9A84B1B6
:100130008F6384B9279A089582E08093B00094E099
:100140009093B10099EF9093B300809370007894EE
:100150001092B20008951F920F920FB60F921124C1
:100160008F939F93809102028F5F80930202809110
:1001700003028F5F80930302809104029091050235
:10018000019690930502809304029F918F910F90A6
:100190000FBE0F901F90189583E884BD83E085BD46
:1001A00017BC16BC089580E480937C0087E9809397
:1001B0007A0010927B0081E080937E000895809108
:1001C0007A00806480937A0080917A0084FFFCCF6B
:1001D000209178004091790080917A00806180932D
:1001E0007A00942F80E030E0282B392BC901089544
:1001F0004A9915C080910302833370F08091010207
:10020000813051F41092030290E08091000281301D
:1002100009F091E0909300021092010203C081E086
:1002200080930102809100020895882311F08230AA
:1002300001F580910602882319F0813039F50DC04F
:1002400085B18F6385B9809102028A3FF8F01092E0
:10025000020281E080930602089585B1807C85B911
:10026000809102028A3F90F01092020210920602E0
:100270000895813011F0833049F485B1807C85B9CF
:10028000809102028A3F10F01092020208951F939B
:10029000CF93DF930E9495000E949C0083E884BD69
:1002A00083E085BD17BC16BC80E480937C0087E9A1
:1002B00080937A0010927B0081E080937E0010E8AA
:1002C0000E94DF00EC010E94F800882321F40E94C4
:1002D000150117BDF5CF83E0C032D80748F482E09E
:1002E0000E941501D695C795D695C795C7BDE8CF8D
:0E02F00083E00E94150117BCE3CFF894FFCF06
:0202FE000101FC
:00000001FF
