:100000000C9472000C9493000C9493000C94930045
:100010000C9493000C9493000C9493000C94930014
:100020000C9493000C9493000C9493000C94930004
:100030000C9493000C9493000C9493000C949300F4
:100040000C9493000C9493000C9493000C949300E4
:100050000C9493000C9493000C9493000C949300D4
:100060000C9493000C9493000C9493000C949300C4
:100070000C9493000C9493000C9493000C949300B4
:100080000C9493000C9493000C9493000C949300A4
:100090000C9493000C9493000C9493000C94930094
:1000A0000C9493000C9493000C9493000C94930084
:1000B0000C9493000C9493000C9493000C94930074
:1000C0000C9493000C9493000C9493000C94930064
:1000D0000C9493000C9493000C9493000C94930054
:1000E0000C94930011241FBECFEFD1E2DEBFCDBF31
:1000F00000E00CBF12E0A0E0B2E0ECECF4E000E0C5
:100100000BBF02C007900D92A431B107D9F712E0DE
:10011000A4E1B2E001C01D92AA31B107E1F70E944B
:1001200098010C9464020C94000087988F9A869A28
:100130008E98089580B3807F80BB81B3807F81BB20
:1001400008959091100280B3E0E0F2E0E90FF11D14
:10015000807F9081892B80BB9091100281B3E8E071
:10016000F2E0E90FF11D807F9081892B81BB81E056
:1001700090E00E9417028091100290E00196837037
:1001800090708C5F8093100208959091140280B358
:10019000E0E0F2E0E90FF11D807F9081892B80BBC8
:1001A0009091140281B3E8E0F2E0E90FF11D807F45
:1001B0009081892B81BB81E090E00E9417028091A1
:1001C000140290E001968370907080931402089559
:1001D0000E94C5000E94C5000E94C5000E94C50083
:1001E00080B3807F80BB81B3807F81BB84EF91E04F
:1001F0000E9417020E94A1000E94A1000E94A1007B
:100200000E94A10080B3807F80BB81B3807F81BBCF
:1002100084EF91E00E941702089580911502E0E0BA
:10022000F2E0E80FF11D808180BB80911502E8E0CB
:10023000F2E0E80FF11D808181BB81E090E00E9437
:1002400017028091150290E001968770907080935C
:10025000150208951F9310E00E940D011F5F1830D2
:10026000D9F780B3807F80BB81B3807F81BB8AEF69
:1002700090E00E9417021F910895809111020E9440
:100280003A02E82F80931102E770F0E0DF01A050FE
:10029000BE4F8C9180BBE85FFD4F808181BB84E6BF
:1002A00090E00E9417020895833091F0843028F482
:1002B000813041F08230C1F408C0853099F0863039
:1002C00099F40DC00E940D0108950E943D0108950A
:1002D00080B3807F80BB81B3807F81BB08950E9403
:1002E000E80008950E942A010895CF93DF937F9933
:1002F0001BC08EE190E00E9417027F9915C07F9984
:1003000012C0C0E0D0E00BC00E944302219685E2FB
:10031000CC3ED80720F07F9B02C082E006C07F9BC6
:10032000F3CF81E002C001C080E0DF91CF9108955A
:10033000CF92DF92EF92FF920F931F93CF93DF93B1
:100340000E94950010E0EE24FF2484E1C82ED12CF9
:1003500081E00E943A02082F00000E94750181305E
:1003600019F0823011F41DC01F5F802F6AE00E94D7
:100370005802892F90E001968C9D90018D9D300D43
:100380009C9D300D11241230F1F0133018F411231C
:1003900041F032C0133019F0143071F527C014E069
:1003A0002BC081E00E943A026AE00E945802892F25
:1003B00090E001968C9D70018D9DF00C9C9DF00C41
:1003C000112411E019C0E9012197CE15DF0550F481
:1003D0000894E108F108279A2F9A84EF91E00E948F
:1003E00017022F98CD2B41F413E006C02D52314057
:1003F00010F415E001C016E0812F0E94540181E045
:1004000090E00E9417028091160290911702A0912D
:100410001802B09119020196A11DB11D8093160218
:1004200090931702A0931802B093190291CF8030D5
:1004300049F0813041F00E942F0201978130D9F7B5
:10044000813009F0089502E01BE0000021EF2A95B9
:10045000F1F71A95D9F70A95B9F70C94220203E738
:1004600011E000002CE22A95F1F71A95D9F70A95C8
:10047000B9F70895082F202F000F000F020F21E079
:10048000020F802F08950000000065E057E0000093
:100490000000000048E05A9500000000E1F757E036
:1004A000000000004A95B9F76A95000081F70895A9
:1004B000991B79E004C0991F961708F0961B881FB6
:0C04C0007A95C9F780950895F894FFCF55
:1004CC004343464645454C4C8281848281848884D2
:0404DC000401010016
:00000001FF
