:100000000C9472000C9493000C9493000C94930045
:100010000C9493000C9493000C9493000C94930014
:100020000C9493000C9493000C9493000C94930004
:100030000C9493000C9493000C9493000C949300F4
:100040000C9493000C9493000C9493000C949300E4
:100050000C9493000C9493000C9493000C949300D4
:100060000C9493000C9493000C9493000C949300C4
:100070000C9493000C9493000C9493000C949300B4
:100080000C9493000C9493000C9493000C949300A4
:100090000C9493000C9493000C9493000C94930094
:1000A0000C9493000C9493000C9493000C94930084
:1000B0000C9493000C9493000C9493000C94930074
:1000C0000C9493000C9493000C9493000C94930064
:1000D0000C9493000C9493000C9493000C94930054
:1000E0000C94930011241FBECFEFD1E2DEBFCDBF31
:1000F00000E00CBF12E0A0E0B2E0E2E6F4E000E0D5
:100100000BBF02C007900D92A031B107D9F712E0E2
:10011000A0E1B2E001C01D92A431B107E1F70E9455
:1001200095000C942F020C940000DF93CF93CDB771
:10013000DEB72B970FB6F894DEBF0FBECDBF1F8280
:100140001E821D821C821B8281E08A830E947101B3
:10015000282F30E03B872A878A859B85813091054F
:1001600031F02A853B852230310529F005C08F8189
:100170008F5F8F8301C01F828F81282F30E03987E6
:100180002887888599858230910509F44CC0288597
:1001900039852330310554F488859985009799F085
:1001A000288539852130310541F167C088859985D9
:1001B0008330910509F444C0288539852430310500
:1001C00009F44CC05AC081E00E942802882F90E0B8
:1001D00001969C01220F331F220F331FC901880F84
:1001E000991F880F991F820F931F9E838D831C82F6
:1001F0001B828F818F5F8F8340C00E947101898332
:1002000081E069810E94C30189818130B1F51A8240
:100210008F818F5F8F83A1E3B0E0E1E3F0E0808125
:1002200080748C932AC08D819E8101979E838D83DB
:100230008D819E81009709F58F818F5F8F831DC00F
:100240008D819E81009721F08F818F5F8F8315C0F4
:100250008B819C8101969C838B830FC08D819E81B5
:100260002B813C81820F931F31E08D32930718F070
:1002700086E08F8302C085E08F8381E090E00E945A
:1002800005028091100290911102A0911202B0918A
:1002900013020196A11DB11D8093100290931102CB
:1002A000A0931202B093130251CFDF93CF93CDB737
:1002B000DEB7A0E3B0E0E0E3F0E080818F778C93DD
:1002C000A0E3B0E0E0E3F0E0808180648C93A1E300
:1002D000B0E0E1E3F0E0808180648C93CF91DF9126
:1002E0000895DF93CF9300D0CDB7DEB7EFE2F0E013
:1002F0008081882314F41B823FC084E190E00E9437
:100300000502EFE2F0E08081882314F41B8234C000
:100310001A82198281E090E00E94050289819A8107
:1003200001969A838983EFE2F0E080818823BCF014
:1003300089819A8123E0883E920760F304C081E0BE
:1003400090E00E940502EFE2F0E080818823BCF794
:1003500084E190E00E94050282E08B830DC084E17D
:1003600090E00E940502EFE2F0E0808188231CF417
:1003700021E02B8301C01B828B810F900F900F9087
:10038000CF91DF910895DF93CF930F920F92CDB766
:10039000DEB789836A838981882F90E08130910557
:1003A00019F48A810E94D9010F900F90CF91DF91AB
:1003B0000895DF93CF930F920F92CDB7DEB78A8364
:1003C00019821BC0A0E3B0E08981882F90E0FC0176
:1003D000E85FFD4F80818C93A1E3B0E08981882F95
:1003E00090E0FC01E050FE4F80818C9384E690E029
:1003F0000E94050289818F5F89838981883018F482
:100400008A818823F9F21982F8CF803049F081304F
:1004100041F00E941D0201978130D9F7813009F027
:10042000089502E01BE0000021EF2A95F1F71A95EC
:10043000D9F70A95B9F70C94100203E711E0000010
:100440002CE22A95F1F71A95D9F70A95B9F708958C
:1004500005EA809F1DE4010E802D11240895F89473
:02046000FFCFCC
:1004620042414442414448444343464645454C4C3C
:00000001FF
