:100000000C9472000C9493000C9493000C94930045
:100010000C9493000C9493000C9493000C94930014
:100020000C9493000C9493000C9493000C94930004
:100030000C9493000C9493000C9493000C949300F4
:100040000C9493000C9493000C9493000C949300E4
:100050000C9493000C9493000C9493000C949300D4
:100060000C9493000C9493000C9493000C949300C4
:100070000C9493000C9493000C9493000C949300B4
:100080000C9493000C9493000C9493000C949300A4
:100090000C9493000C9493000C9493000C94930094
:1000A0000C9493000C9493000C9493000C94930084
:1000B0000C9493000C9493000C9493000C94930074
:1000C0000C9493000C9493000C9493000C94930064
:1000D0000C9493000C9493000C9493000C94930054
:1000E0000C94930011241FBECFEFD1E2DEBFCDBF31
:1000F00000E00CBF12E0A0E0B2E0EAEDF7E000E0C3
:100100000BBF02C007900D92A834B107D9F712E0D7
:10011000A8E4B2E001C01D92AE34B107E1F70E943D
:1001200095000C94EB030C940000EF92FF920F9358
:100130001F93DF93CF93CDB7DEB7A8970FB6F89490
:10014000DEBF0FBECDBF80E049E350E360E070E06A
:1001500028E001E092E0E92E0E94280182E040E0E0
:1001600052EC61E070E028E000E0EE24E3940E94AD
:10017000280183E040E052EC61E070E028E00E945A
:1001800028018E010F5F1F4F85E1E82EF12CEC0E48
:10019000FD1E80E00E94BB0180E00E94C90180E05A
:1001A00062E042E00E94170280E061E20E944D029C
:1001B00080E060E072E00E94890180E066E142E058
:1001C0000E94170280E060E20E944D0280E0B801C8
:1001D0000E94120382E0B8010E94890182E065E179
:1001E00072E00E94890183E0B7010E94120380E05F
:1001F00065E043E00E94170280E0B7010E94890198
:10020000C8010E94B302B80140E10E94870280E069
:1002100065E044E00E94170280E062E20E944D0225
:1002200080E067E172E00E94890180E0B8010E94ED
:10023000890180E065E045E00E94170280E06DE101
:1002400072E00E94890180E0B8010E948901A1CF7B
:10025000AF92BF92CF92DF92EF920F93CF93DF9343
:100260005A016B01922F2E2DE82FF0E0EE0FFF1FA9
:10027000E15DFD4FC081D18188E18983013021F0AA
:10028000023021F482E003C083E001C080E0E82F67
:10029000F0E054E0EE0FFF1F5A95E1F760E070E0E8
:1002A000213011F061E070E043E0660F771F4A955E
:1002B000E1F78E2F862B8A83993039F48A81866004
:1002C0008A8389818460898308C02A81892F90E08C
:1002D0000597880F991F282B2A8384E0AA0CBB1C42
:1002E000CC1CDD1C8A95D1F760E074E284EF90E0CD
:1002F000A60195010E949603215030403D832C8336
:10030000DF91CF910F91EF90DF90CF90BF90AF90A2
:100310000895CF93DF93EB01E82FF0E0EE0FFF1F7E
:10032000E15DFD4F08C0A081B1818C9185FFFDCFBB
:10033000219616969C9398819923A9F7DF91CF91E6
:100340000895E82FF0E0EE0FFF1FE15DFD4F0190F3
:10035000F081E02D808185FFFDCF66830895E82F31
:10036000F0E0EE0FFF1FE15DFD4F0190F081E02D09
:10037000808180780895E82FF0E0EE0FFF1FE15DA7
:10038000FD4F0190F081E02D808187FFFDCF8681B8
:1003900008951F93182F63E272E00E948901812F54
:1003A00068E272E00E9489011F910895382F262F7C
:1003B0006436B0F0E82FF0E0EE0FFF1FE15DFD4F77
:1003C0000190F081E02D808185FFFDCF822F64E6D2
:1003D0000E948A03805D8683822F0E948A03292FD0
:1003E0002A30B0F0E32FF0E0EE0FFF1FE15DFD4F8C
:1003F0000190F081E02D808185FFFDCF822F6AE0A2
:100400000E948A03805D8683822F0E948A03292F9F
:10041000E32FF0E0EE0FFF1FE15DFD4F0190F08153
:10042000E02D808185FFFDCF205D26830895FF921A
:100430000F931F93CF93DF93082FF62E142F6CE2A8
:1004400072E00E9489011F5F802F612F0E94D601F8
:10045000C02FD0E0FE01EE0FFF1FE15DFD4F0190C8
:10046000F081E02D808185FFFDCF8BE38683F394BF
:10047000802F6F2D0E94D601CC0FDD1FC15DDD4F97
:10048000E881F981808185FFFDCF88E48683DF9153
:10049000CF911F910F91FF9008950F931F93182FE5
:1004A000062F6CE272E00E948901A12FB0E0FD01ED
:1004B000EE0FFF1FE15DFD4F0190F081E02D808187
:1004C00085FFFDCF802F6AE00E948A03805D8683CE
:1004D000FD01EE0FFF1FE15DFD4F0190F081E02D6A
:1004E000808185FFFDCF802F6AE00E948A03905DA6
:1004F0009683AA0FBB1FA15DBD4FED91FC9180813A
:1005000085FFFDCF8DE686831F910F910895DF93C0
:10051000CF93CDB7DEB760970FB6F894DEBF0FBEAE
:10052000CDBFDE011196E7E3F2E090E101900D927C
:100530009150E1F7423071F0403161F48F70FE016B
:10054000E80FF11D2081FB01E90FF11D20839F5F62
:100550008823C9F760960FB6F894DEBF0FBECDBFF3
:10056000CF91DF910895CF92DF92EF92FF921F9388
:10057000DF93CF93CDB7DEB7582FCDB6DEB6282F99
:10058000392FD90101C011961A2F151B8C91882380
:10059000D1F78DB79EB7811B91090FB6F8949EBF16
:1005A0000FBE8DBFEDB6FEB60894E11CF11C912F75
:1005B000915007C0F701E90FF11D805380839150DE
:1005C00011968C918823B1F741E050E070E060E033
:1005D00018C0F701E60FF11D808190E0849F900123
:1005E000859F300D949F300D1124CA01880F991FEB
:1005F00033E0440F551F3A95E1F7480F591F720F2A
:100600006F5F611730F3872F90E00FB6F894DEBE6E
:100610000FBECDBECF91DF911F91FF90EF90DF9085
:10062000CF900895BF92CF92DF92EF92FF920F93F7
:100630001F93CF93DF936B01FF24C82FD0E08E016F
:10064000000F111F015D1D4F88E0E82EB0E2BB2EA8
:10065000D801ED91FC91808187FFFDCF66816830E4
:10066000E9F4FF20A9F3FA94F601EF0DF11D1082D1
:10067000D801ED91FC91808185FFFDCFE682D80104
:10068000ED91FC91808185FFFDCFB682D801ED917F
:10069000FC91808185FFFDCFE682DACF808185FFE6
:1006A000FDCF66836D3011F06A3031F5CF0CD11C6F
:1006B000F6011082FE01EE0FFF1FE15DFD4F01907C
:1006C000F081E02D808185FFFDCF8DE08683CC0F0A
:1006D000DD1FC15DDD4FE881F981808185FFFDCFA0
:1006E0008AE08683DF91CF911F910F91FF90EF9069
:1006F000DF90CF90BF900895FEE7FF1508F4A8CFD4
:10070000F601EF0DF11D6083F394CE0170E00E94BD
:10071000B8039ECF991B79E004C0991F961708F083
:10072000961B881F7A95C9F780950895A1E21A2E25
:10073000AA1BBB1BFD010DC0AA1FBB1FEE1FFF1F85
:10074000A217B307E407F50720F0A21BB30BE40BD5
:10075000F50B661F771F881F991F1A9469F760951C
:100760007095809590959B01AC01BD01CF010895D6
:1007700060914A0270914B020E94BF0308950F934B
:100780001F93CF93DF938C01EB018B8181FF1BC003
:1007900082FF0DC02E813F818C819D8128173907F2
:1007A00064F4E881F9810193F983E88306C0E88560
:1007B000F985802F1995892B31F48E819F810196BF
:1007C0009F838E8302C00FEF1FEFC801DF91CF918F
:0A07D0001F910F910895F894FFCFD8
:1007DA00496E74726F6475636520756E206E3F6D25
:1007EA0065726F3A000D004865783A200042696EDA
:1007FA003A20001B5B324A001B5B48001B5B00C0AF
:10080A0000C800D000300130313233343536373841
:08081A00394142434445460008
:00000001FF
