:100000000C9472000C948B000C948B000C948B005D
:100010000C948B000C948B000C948B000C948B0034
:100020000C948B000C948B000C948B000C948B0024
:100030000C948B000C948B000C948B000C948B0014
:100040000C948B000C948B000C948B000C948B0004
:100050000C948B000C948B000C948B000C948B00F4
:100060000C948B000C948B000C948B000C948B00E4
:100070000C948B000C948B000C948B000C948B00D4
:100080000C948B000C948B000C948B000C948B00C4
:100090000C948B000C948B000C948B000C948B00B4
:1000A0000C948B000C948B000C948B000C948B00A4
:1000B0000C948B000C948B000C948B000C948B0094
:1000C0000C948B000C948B000C948B000C948B0084
:1000D0000C948B000C948B000C948B000C948B0074
:1000E0000C948B0011241FBECFEFD1E2DEBFCDBF39
:1000F00000E00CBF12E0A0E0B2E0EEEFF6E000E0BE
:100100000BBF02C007900D92A834B107D9F70E9427
:100110008D000C947D030C940000EF92FF920F93DE
:100120001F93DF93CF93CDB7DEB7A8970FB6F894A0
:10013000DEBF0FBECDBF80E049E350E360E070E07A
:1001400028E001E092E0E92E0E94200182E040E0F8
:1001500052EC61E070E028E000E0EE24E3940E94BD
:10016000200183E040E052EC61E070E028E00E9472
:1001700020018E010F5F1F4F85E1E82EF12CEC0E60
:10018000FD1E80E00E94B30180E00E94200280E01A
:1001900062E042E00E946E0280E061E20E94A402FE
:1001A00080E060E072E00E94810180E066E142E070
:1001B0000E946E0280E060E20E94A40280E0B8012A
:1001C0000E94C10182E0B8010E94810182E065E1E4
:1001D00072E00E94810183E0B7010E94C10180E0CA
:1001E00065E043E00E946E0280E0B7010E94810159
:1001F000C8010E943103B80140E10E94DE0280E0A4
:1002000065E044E00E946E0280E062E20E94A40287
:1002100080E067E172E00E94810180E0B8010E9405
:10022000810180E065E045E00E946E0280E06DE1C2
:1002300072E00E94810180E0B8010E948101A1CF9B
:10024000AF92BF92CF92DF92EF920F93CF93DF9353
:100250005A016B01922F2E2DE82FF0E0EE0FFF1FB9
:10026000E05CFD4FC081D18188E18983013021F0BC
:10027000023021F482E003C083E001C080E0E82F77
:10028000F0E054E0EE0FFF1F5A95E1F760E070E0F8
:10029000213011F061E070E043E0660F771F4A956E
:1002A000E1F78E2F862B8A83993039F48A81866014
:1002B0008A8389818460898308C02A81892F90E09C
:1002C0000597880F991F282B2A8384E0AA0CBB1C52
:1002D000CC1CDD1C8A95D1F760E074E284EF90E0DD
:1002E000A60195010E945B03215030403D832C8381
:1002F000DF91CF910F91EF90DF90CF90BF90AF90B3
:100300000895CF93DF93EB01E82FF0E0EE0FFF1F8E
:10031000E05CFD4F08C0A081B1818C9185FFFDCFCD
:10032000219616969C9398819923A9F7DF91CF91F6
:100330000895E82FF0E0EE0FFF1FE05CFD4F019005
:10034000F081E02D808185FFFDCF66830895E82F41
:10035000F0E0EE0FFF1FE05CFD4F0190F081E02D1B
:10036000808180780895E82FF0E0EE0FFF1FE05CB9
:10037000FD4F0190F081E02D808187FFFDCF8681C8
:100380000895CF93DF93AB0120E0A82FB0E0ED01FB
:10039000CC0FDD1FC05CDD4F38E060E2E881F98101
:1003A000808187FFFDCF96819830D1F42223B1F36D
:1003B0002150FA01E20FF11D1082E881F98180815C
:1003C00085FFFDCF3683E881F981808185FFFDCFF0
:1003D0006683E881F981808185FFFDCF3683DECF9A
:1003E000808185FFFDCF96839D3011F09A30F9F41E
:1003F000420F511DFA011082FD01EE0FFF1FE05C5C
:10040000FD4F0190F081E02D808185FFFDCF8DE0D3
:100410008683AA0FBB1FA05CBD4FED91FC9180812C
:1004200085FFFDCF8AE08683DF91CF9108952F3736
:1004300008F0B4CFFA01E20FF11D90832F5FAECF29
:100440001F93182F63E272E00E948101812F68E2FE
:1004500072E00E9481011F910895382F262F643683
:10046000B0F0E82FF0E0EE0FFF1FE05CFD4F0190D1
:10047000F081E02D808185FFFDCF822F64E60E9410
:100480004F03805D8683822F0E944F03292F2A30DD
:10049000B0F0E32FF0E0EE0FFF1FE05CFD4F0190A6
:1004A000F081E02D808185FFFDCF822F6AE00E94E0
:1004B0004F03805D8683822F0E944F03292FE32FF5
:1004C000F0E0EE0FFF1FE05CFD4F0190F081E02DAA
:1004D000808185FFFDCF205D26830895FF920F93D5
:1004E0001F93CF93DF93082FF62E142F6CE272E048
:1004F0000E9481011F5F802F612F0E942D02C02F5B
:10050000D0E0FE01EE0FFF1FE05CFD4F0190F08197
:10051000E02D808185FFFDCF8BE38683F394802FD0
:100520006F2D0E942D02CC0FDD1FC05CDD4FE881D6
:10053000F981808185FFFDCF88E48683DF91CF91AB
:100540001F910F91FF9008950F931F93182F062F5F
:100550006CE272E00E948101A12FB0E0FD01EE0F7C
:10056000FF1FE05CFD4F0190F081E02D808185FF51
:10057000FDCF802F6AE00E944F03805D8683FD01DE
:10058000EE0FFF1FE05CFD4F0190F081E02D8081B8
:1005900085FFFDCF802F6AE00E944F03905D968318
:1005A000AA0FBB1FA05CBD4FED91FC91808185FF20
:1005B000FDCF8DE686831F910F9108950F931F93B2
:1005C000DF93CF93CDB7DEB7A1970FB6F894DEBF18
:1005D0000FBECDBF4031D1F5DE015196EFE2F2E022
:1005E00021E101900D922150E1F7009729F480E379
:1005F000FB01808311822AC09C0190E0AE014F5F15
:100600005F4F8E010F5E1F4FFA01E90FF11DD901F7
:10061000AF70B070A00FB11F8C9180839F5FE4E03A
:1006200036952795EA95E1F72115310569F7FA0125
:10063000E90FF11DDB0102C080818D933197EC172A
:10064000FD07D1F7690F711DFB011082A1960FB64E
:10065000F894DEBF0FBECDBFCF91DF911F910F91F8
:100660000895FC0120E030E015C0842F80538A30CB
:1006700080F4C901B3E0880F991FBA95E1F7220F02
:10068000331F820F931F242F30E020533040280F58
:10069000391F31964081442341F7C9010895991BC0
:1006A00079E004C0991F961708F0961B881F7A9569
:1006B000C9F780950895A1E21A2EAA1BBB1BFD0164
:1006C0000DC0AA1FBB1FEE1FFF1FA217B307E40731
:1006D000F50720F0A21BB30BE40BF50B661F771F89
:1006E000881F991F1A9469F7609570958095909569
:0E06F0009B01AC01BD01CF010895F894FFCF2E
:1006FE00496E74726F6475636520756E206E3F6D02
:10070E0065726F3A000D004865783A200042696EB6
:10071E003A20001B5B324A001B5B48001B5B00301B
:10072E003132333435363738394142434445460049
:08073E00C000C800D00030012A
:00000001FF
