:100000000C9472000C948B000C948B000C948B005D
:100010000C948B000C948B000C948B000C948B0034
:100020000C948B000C948B000C948B000C948B0024
:100030000C948B000C948B000C948B000C948B0014
:100040000C948B000C948B000C948B000C948B0004
:100050000C948B000C948B000C948B000C948B00F4
:100060000C948B000C948B000C948B000C948B00E4
:100070000C948B000C948B000C948B000C948B00D4
:100080000C948B000C948B000C948B000C948B00C4
:100090000C948B000C948B000C948B000C948B00B4
:1000A0000C948B000C948B000C948B000C948B00A4
:1000B0000C948B000C948B000C948B000C948B0094
:1000C0000C948B000C948B000C948B000C948B0084
:1000D0000C948B000C948B000C948B000C948B0074
:1000E0000C948B0011241FBECFEFD1E2DEBFCDBF39
:1000F00000E00CBF12E0A0E0B2E0EAEBF7E000E0C5
:100100000BBF02C007900D92A834B107D9F70E9427
:100110008D000C94DB030C940000CF92DF92EF92E1
:10012000FF920F931F93DF93CF93CDB7DEB7A897BE
:100130000FB6F894DEBF0FBECDBF80E049E350E3B9
:1001400060E070E028E001E092E0E92E0E942901E1
:1001500082E040E052EC61E070E028E000E0EE2454
:10016000E3940E94290183E040E052EC61E070E0FA
:1001700028E00E9429017E010894E11CF11C85E120
:10018000C82ED12CCC0EDD1E80E00E94BC0180E088
:100190000E94450280E062E042E00E94930280E01B
:1001A00061E20E94C90280E060E072E00E948A0180
:1001B00080E066E142E00E94930280E060E20E94FB
:1001C000C90280E0B7010E94CA0182E0B7010E9423
:1001D0008A0182E065E172E00E948A0183E0B60153
:1001E0000E94CA0180E065E043E00E94930280E043
:1001F000B6010E948A01C7010E948F038C01B701DA
:1002000040E10E94030380E065E044E00E94930225
:1002100080E062E20E94C90280E067E172E00E9431
:100220008A0180E0B7010E948A01C801B70142E05B
:100230000E94030380E065E045E00E94930280E0B5
:100240006DE172E00E948A0180E0B7010E948A019C
:100250009BCFAF92BF92CF92DF92EF920F93CF934B
:10026000DF935A016B01922F2E2DE82FF0E0EE0F55
:10027000FF1FE05CFD4FC081D18188E1898301309F
:1002800021F0023021F482E003C083E001C080E06D
:10029000E82FF0E054E0EE0FFF1F5A95E1F760E021
:1002A00070E0213011F061E070E043E0660F771FED
:1002B0004A95E1F78E2F862B8A83993039F48A810B
:1002C00086608A8389818460898308C02A81892F16
:1002D00090E00597880F991F282B2A8384E0AA0CA9
:1002E000BB1CCC1CDD1C8A95D1F760E074E284EF66
:1002F00090E0A60195010E94B903215030403D8352
:100300002C83DF91CF910F91EF90DF90CF90BF9032
:10031000AF900895CF93DF93EB01E82FF0E0EE0F5D
:10032000FF1FE05CFD4F08C0A081B1818C9185FF6B
:10033000FDCF219616969C9398819923A9F7DF917A
:10034000CF910895E82FF0E0EE0FFF1FE05CFD4F26
:100350000190F081E02D808185FFFDCF66830895B7
:10036000E82FF0E0EE0FFF1FE05CFD4F0190F08101
:10037000E02D808180780895E82FF0E0EE0FFF1FD8
:10038000E05CFD4F0190F081E02D808187FFFDCF83
:1003900086810895CF93DF93AB0120E0C82FD0E092
:1003A000DE01AA0FBB1FA05CBD4F38E060E2ED91FB
:1003B000FC911197808187FFFDCF96819830E1F401
:1003C0002223A9F32150FA01E20FF11D1082ED91D1
:1003D000FC911197808185FFFDCF3683ED91FC91D3
:1003E0001197808185FFFDCF6683ED91FC91119778
:1003F000808185FFFDCF47C0808185FFFDCF96833B
:100400009D3011F09A30F9F4420F511DFA0110821B
:10041000FE01EE0FFF1FE05CFD4F0190F081E02D2B
:10042000808185FFFDCF8DE08683CC0FDD1FC05C12
:10043000DD4FE881F981808185FFFDCF8AE08683E9
:10044000DF91CF910895E22FF0E0233128F4E40FFB
:10045000F51F90832F5FABCFE40FF51F1082ED9156
:10046000FC911197808185FFFDCF3683ED91FC9142
:100470001197808185FFFDCF6683ED91FC911197E7
:10048000808185FFFDCF368392CF1F93182F63E2C3
:1004900072E00E948A01812F68E272E00E948A0164
:1004A0001F910895382F262F6436B0F0E82FF0E022
:1004B000EE0FFF1FE05CFD4F0190F081E02D808189
:1004C00085FFFDCF822F64E60E94AD03805D8683A9
:1004D000822F0E94AD03292F2A30B0F0E32FF0E0E5
:1004E000EE0FFF1FE05CFD4F0190F081E02D808159
:1004F00085FFFDCF822F6AE00E94AD03805D868379
:10050000822F0E94AD03292FE32FF0E0EE0FFF1F93
:10051000E05CFD4F0190F081E02D808185FFFDCFF3
:10052000205D26830895FF920F931F93CF93DF934F
:10053000082FF62E142F6CE272E00E948A011F5FD2
:10054000802F612F0E945202C02FD0E0FE01EE0FDB
:10055000FF1FE05CFD4F0190F081E02D808185FF61
:10056000FDCF8BE38683F394802F6F2D0E94520280
:10057000CC0FDD1FC05CDD4FE881F981808185FFF4
:10058000FDCF88E48683DF91CF911F910F91FF907B
:1005900008950F931F93182F062F6CE272E00E94AC
:1005A0008A01A12FB0E0FD01EE0FFF1FE05CFD4FBF
:1005B0000190F081E02D808185FFFDCF802F6AE0E2
:1005C0000E94AD03805D8683FD01EE0FFF1FE05C9E
:1005D000FD4F0190F081E02D808185FFFDCF802FC0
:1005E0006AE00E94AD03905D9683AA0FBB1FA05CDA
:1005F000BD4FED91FC91808185FFFDCF8DE6868317
:100600001F910F9108950F931F93DF93CF93CDB751
:10061000DEB7A1970FB6F894DEBF0FBECDBF403155
:10062000A1F5DE015196EFE2F2E021E101900D9299
:100630002150E1F7009769F19C0190E0AE014F5F16
:100640005F4F8E010F5E1F4FFA01E90FF11DD901B7
:10065000AF70B070A00FB11F8C9180839F5FE4E0FA
:1006600036952795EA95E1F72115310569F7FA01E5
:10067000E90FF11DDB0102C080818D933197EC17EA
:10068000FD07D1F7690F711D3DC04230E9F50097B4
:1006900029F480E3FB018083118236C020E0AE01A3
:1006A0004F5E5F4F80FD02C030E301C031E3FA01CD
:1006B000E20FF11D30832F5F96958795009791F794
:1006C00006C0FC01E20FF11D30832F5F03C0CE0195
:1006D000419630E32031A8F3422F4150A42FBB278D
:1006E000A7FDB095A80FB91F562FCB01FC0104C080
:1006F0008C918193415011978E2F851B47FFF8CF26
:10070000680F711DFB011082A1960FB6F894DEBF31
:100710000FBECDBFCF91DF911F910F910895FC01C6
:1007200020E030E015C0842F80538A3080F4C90166
:10073000B3E0880F991FBA95E1F7220F331F820F9C
:10074000931F242F30E020533040280F391F31965B
:100750004081442341F7C9010895991B79E004C001
:10076000991F961708F0961B881F7A95C9F78095F0
:100770000895A1E21A2EAA1BBB1BFD010DC0AA1FE2
:10078000BB1FEE1FFF1FA217B307E407F50720F0FA
:10079000A21BB30BE40BF50B661F771F881F991F75
:1007A0001A9469F760957095809590959B01AC01BE
:0A07B000BD01CF010895F894FFCFBA
:1007BA00496E74726F6475636520756E206E3F6D45
:1007CA0065726F3A000D004865783A200042696EFA
:1007DA003A20001B5B324A001B5B48001B5B00305F
:1007EA00313233343536373839414243444546008D
:0807FA00C000C800D00030016E
:00000001FF
