:100000000C9472000C9493000C9493000C94930045
:100010000C9493000C9493000C9493000C94930014
:100020000C9493000C9493000C9493000C94930004
:100030000C9493000C9493000C9493000C949300F4
:100040000C9493000C9493000C9493000C949300E4
:100050000C9493000C9493000C9493000C949300D4
:100060000C9493000C9493000C9493000C949300C4
:100070000C9493000C9493000C9493000C949300B4
:100080000C9493000C9493000C9493000C949300A4
:100090000C9493000C9493000C9493000C94930094
:1000A0000C9493000C9493000C9493000C94930084
:1000B0000C9493000C9493000C9493000C94930074
:1000C0000C9493000C9493000C9493000C94930064
:1000D0000C9493000C9493000C9493000C94930054
:1000E0000C94930011241FBECFEFD1E2DEBFCDBF31
:1000F00000E00CBF12E0A0E0B2E0EEE2F5E000E0CC
:100100000BBF02C007900D92AA33B107D9F712E0D6
:10011000AAE3B2E001C01D92A034B107E1F70E944A
:1001200095000C9495020C940000EF92FF920F93AF
:100130001F93DF93CF93CDB7DEB7AC970FB6F8948C
:10014000DEBF0FBECDBF80E049E350E360E070E06A
:1001500028E001E092E0E92E0E94080182E040E000
:1001600052EC61E070E028E000E0EE24E3940E94AD
:10017000080183E040E052EC61E070E028E00E947A
:1001800008018E010F5F1F4F87E1E82EF12CEC0E66
:10019000FD1E80E090E00E94960180E090E00E94C9
:1001A000A40180E090E060E072E00E94770180E0CE
:1001B00090E0B8010E94C80182E090E0B8010E947E
:1001C000770182E090E066E172E00E94770183E0CF
:1001D00090E0B7010E94C80180E090E0B7010E9462
:1001E000770180E090E068E172E00E94770180E0B2
:1001F00090E0B8010E94770180E090E06EE172E04B
:100200000E94770180E090E0B8010E947701C1CFA1
:10021000AF92BF92CF92DF92EF920F93CF93DF9383
:100220005A016B01922F2E2DE82FF0E0EE0FFF1FE9
:10023000EE5CFD4FC081D18188E18983013021F0DE
:10024000023021F482E003C083E001C080E0E82FA7
:10025000F0E054E0EE0FFF1F5A95E1F760E070E028
:10026000213011F061E070E043E0660F771F4A959E
:10027000E1F78E2F862B8A83993039F48A81866044
:100280008A8389818460898308C02A81892F90E0CC
:100290000597880F991F282B2A8384E0AA0CBB1C82
:1002A000CC1CDD1C8A95D1F760E074E284EF90E00D
:1002B000A60195010E944002215030403D832C83CD
:1002C000DF91CF910F91EF90DF90CF90BF90AF90E3
:1002D0000895E82FF0E0EE0FFF1FEE5CFD4F019058
:1002E000F081E02D808185FFFDCF668308951F9307
:1002F000CF93DF93182FEB0106C02196812F90E05A
:1003000070E00E94690168816623B9F7DF91CF919F
:100310001F910895E82FF0E0EE0FFF1FEE5CFD4FF8
:100320000190F081E02D808180780895E82FF0E041
:10033000EE0FFF1FEE5CFD4F0190F081E02D8081FC
:1003400087FFFDCF868108951F93182F64E272E026
:100350000E947701812F69E272E00E9477011F916C
:1003600008951F93182F6DE272E00E947701E12F2C
:10037000F0E0EE0FFF1FEE5CFD4F0190F081E02DED
:10038000808185FFFDCF80E392E086831F910895F1
:10039000BF92CF92DF92EF92FF920F931F93CF9372
:1003A000DF936B01FF24C82FD0E08E01000F111FD7
:1003B0000E5C1D4F28E0E22E90E2B92ED801ED919F
:1003C000FC91808187FFFDCF66816830E9F4FF20D2
:1003D000A9F3FA94F601EF0DF11D1082D801ED9109
:1003E000FC91808185FFFDCFE682D801ED91FC91E3
:1003F000808185FFFDCFB682D801ED91FC9180818F
:1004000085FFFDCFE682DACF808185FFFDCF668351
:100410006D3011F06A3031F5CF0CD11CF60110822D
:10042000FE01EE0FFF1FEE5CFD4F0190F081E02D0D
:10043000808185FFFDCF8DE08683CC0FDD1FCE5CF4
:10044000DD4FE881F981808185FFFDCF8AE08683D9
:10045000DF91CF911F910F91FF90EF90DF90CF90A0
:10046000BF900895FEE7FF1508F4A8CFF601EF0D41
:10047000F11D6083F394CE0170E00E9462029ECF72
:10048000A1E21A2EAA1BBB1BFD010DC0AA1FBB1F98
:10049000EE1FFF1FA217B307E407F50720F0A21B0A
:1004A000B30BE40BF50B661F771F881F991F1A9477
:1004B00069F760957095809590959B01AC01BD01A1
:1004C000CF01089560913C0270913D020E94690243
:1004D00008950F931F93CF93DF938C01EB018B81D2
:1004E00081FF1BC082FF0DC02E813F818C819D81C9
:1004F0002817390764F4E881F9810193F983E883C7
:1005000006C0E885F985802F1995892B31F48E81F5
:100510009F8101969F838E8302C00FEF1FEFC8015A
:0E052000DF91CF911F910F910895F894FFCFB6
:10052E00496E74726F6475636520756E206E3F6DD3
:10053E0065726F3A00000D004865783A20004269F6
:10054E006E3A20001B5B324A001B5B48001B5B00AF
:0A055E006D00C000C800D00030019D
:00000001FF
