:100000000C9472000C9493000C9493000C94930045
:100010000C9493000C9493000C9493000C94930014
:100020000C9493000C9493000C9493000C94930004
:100030000C9493000C9493000C9493000C949300F4
:100040000C9493000C9493000C9493000C949300E4
:100050000C9493000C9493000C9493000C949300D4
:100060000C9493000C9493000C9493000C949300C4
:100070000C9493000C9493000C9493000C949300B4
:100080000C9493000C9493000C9493000C949300A4
:100090000C9493000C9493000C9493000C94930094
:1000A0000C9493000C9493000C9493000C94930084
:1000B0000C9493000C9493000C9493000C94930074
:1000C0000C9493000C9493000C9493000C94930064
:1000D0000C9493000C9493000C9493000C94930054
:1000E0000C94930011241FBECFEFD1E2DEBFCDBF31
:1000F00000E00CBF12E0A0E0B2E0E6EBF6E000E0CA
:100100000BBF02C007900D92A833B107D9F712E0D8
:10011000A8E3B2E001C01D92AE33B107E1F70E943F
:1001200095000C9459030C940000EF92FF920F93EA
:100130001F93DF93CF93CDB7DEB7A8970FB6F89490
:10014000DEBF0FBECDBF80E049E350E360E070E06A
:1001500028E001E092E0E92E0E94210182E040E0E7
:1001600052EC61E070E028E000E0EE24E3940E94AD
:10017000210183E040E052EC61E070E028E00E9461
:1001800021018E010F5F1F4F85E1E82EF12CEC0E4F
:10019000FD1E80E00E94B40180E00E94C20180E068
:1001A00062E042E00E94100280E061E20E944602AA
:1001B00080E060E072E00E94820180E066E142E05F
:1001C0000E94100280E060E20E94460280E0B801D6
:1001D0000E94800282E0B8010E94820182E065E113
:1001E00072E00E94820183E0B7010E94800280E0F9
:1001F00065E043E00E94100280E0B7010E948201A6
:1002000080E065E044E00E94100280E062E20E942B
:10021000460280E067E172E00E94820180E0B8015E
:100220000E94820180E065E045E00E94100280E0CB
:100230006DE172E00E94820180E0B8010E948201BB
:10024000A8CFAF92BF92CF92DF92EF920F93CF934E
:10025000DF935A016B01922F2E2DE82FF0E0EE0F65
:10026000FF1FE15DFD4FC081D18188E189830130AD
:1002700021F0023021F482E003C083E001C080E07D
:10028000E82FF0E054E0EE0FFF1F5A95E1F760E031
:1002900070E0213011F061E070E043E0660F771FFD
:1002A0004A95E1F78E2F862B8A83993039F48A811B
:1002B00086608A8389818460898308C02A81892F26
:1002C00090E00597880F991F282B2A8384E0AA0CB9
:1002D000BB1CCC1CDD1C8A95D1F760E074E284EF76
:1002E00090E0A60195010E940403215030403D8317
:1002F0002C83DF91CF910F91EF90DF90CF90BF9043
:10030000AF900895CF93DF93EB01E82FF0E0EE0F6D
:10031000FF1FE15DFD4F08C0A081B1818C9185FF79
:10032000FDCF219616969C9398819923A9F7DF918A
:10033000CF910895E82FF0E0EE0FFF1FE15DFD4F34
:100340000190F081E02D808185FFFDCF66830895C7
:10035000E82FF0E0EE0FFF1FE15DFD4F0190F0810F
:10036000E02D808180780895E82FF0E0EE0FFF1FE8
:10037000E15DFD4F0190F081E02D808187FFFDCF91
:10038000868108951F93182F63E272E00E94820114
:10039000812F68E272E00E9482011F910895382F38
:1003A000262F6436B0F0E82FF0E0EE0FFF1FE15D7E
:1003B000FD4F0190F081E02D808185FFFDCF822FE0
:1003C00064E60E94F802805D8683822F0E94F80214
:1003D000292F2A30B0F0E32FF0E0EE0FFF1FE15D90
:1003E000FD4F0190F081E02D808185FFFDCF822FB0
:1003F0006AE00E94F802805D8683822F0E94F802E4
:10040000292FE32FF0E0EE0FFF1FE15DFD4F01907C
:10041000F081E02D808185FFFDCF205D268308954A
:10042000FF920F931F93CF93DF93082FF62E142F75
:100430006CE272E00E9482011F5F802F612F0E9498
:10044000CF01C02FD0E0FE01EE0FFF1FE15DFD4F99
:100450000190F081E02D808185FFFDCF8BE38683C5
:10046000F394802F6F2D0E94CF01CC0FDD1FC15D53
:10047000DD4FE881F981808185FFFDCF88E48683A7
:10048000DF91CF911F910F91FF9008950F931F93CC
:10049000182F062F6CE272E00E948201A12FB0E0BB
:1004A000FD01EE0FFF1FE15DFD4F0190F081E02D9A
:1004B000808185FFFDCF802F6AE00E94F802805D79
:1004C0008683FD01EE0FFF1FE15DFD4F0190F0817E
:1004D000E02D808185FFFDCF802F6AE00E94F80229
:1004E000905D9683AA0FBB1FA15DBD4FED91FC915E
:1004F000808185FFFDCF8DE686831F910F91089542
:10050000BF92CF92DF92EF92FF920F931F93CF9300
:10051000DF936B01FF24C82FD0E08E01000F111F65
:10052000015D1D4F48E0E42E30E2B32ED801ED917D
:10053000FC91808187FFFDCF66816830E9F4FF2060
:10054000A9F3FA94F601EF0DF11D1082D801ED9197
:10055000FC91808185FFFDCFE682D801ED91FC9171
:10056000808185FFFDCFB682D801ED91FC9180811D
:1005700085FFFDCFE682DACF808185FFFDCF6683E0
:100580006D3011F06A3031F5CF0CD11CF6011082BC
:10059000FE01EE0FFF1FE15DFD4F0190F081E02DA8
:1005A000808185FFFDCF8DE08683CC0FDD1FC15D8F
:1005B000DD4FE881F981808185FFFDCF8AE0868368
:1005C000DF91CF911F910F91FF90EF90DF90CF902F
:1005D000BF900895FEE7FF1508F4A8CFF601EF0DD0
:1005E000F11D6083F394CE0170E00E9426039ECF3C
:1005F000991B79E004C0991F961708F0961B881F75
:100600007A95C9F780950895A1E21A2EAA1BBB1B03
:10061000FD010DC0AA1FBB1FEE1FFF1FA217B307CE
:10062000E407F50720F0A21BB30BE40BF50B661FE4
:10063000771F881F991F1A9469F7609570958095A8
:1006400090959B01AC01BD01CF01089560913A02E4
:1006500070913B020E942D0308950F931F93CF9337
:10066000DF938C01EB018B8181FF1BC082FF0DC0EA
:100670002E813F818C819D812817390764F4E881A0
:10068000F9810193F983E88306C0E885F985802F15
:100690001995892B31F48E819F8101969F838E83DA
:1006A00002C00FEF1FEFC801DF91CF911F910F9193
:0606B0000895F894FFCF4D
:1006B600496E74726F6475636520756E206E3F6D4A
:1006C60065726F3A000D004865783A200042696EFF
:1006D6003A20001B5B324A001B5B48001B5B00C0D4
:0806E60000C800D00030010043
:00000001FF
