:100000000C9472000C948B000C948B000C948B005D
:100010000C948B000C948B000C948B000C948B0034
:100020000C948B000C948B000C948B000C948B0024
:100030000C948B000C948B000C948B000C948B0014
:100040000C948B000C948B000C948B000C948B0004
:100050000C948B000C948B000C948B000C948B00F4
:100060000C948B000C948B000C948B000C948B00E4
:100070000C948B000C948B000C948B000C948B00D4
:100080000C948B000C948B000C948B000C948B00C4
:100090000C948B000C948B000C948B000C948B00B4
:1000A0000C948B000C948B000C948B000C948B00A4
:1000B0000C948B000C948B000C948B000C948B0094
:1000C0000C948B000C948B000C948B000C948B0084
:1000D0000C948B000C948B000C948B000C948B0074
:1000E0000C948B0011241FBECFEFD1E2DEBFCDBF39
:1000F00000E00CBF12E0A0E0B2E0E2E4F8E000E0D3
:100100000BBF02C007900D92A834B107D9F70E9427
:100110008D000C941F040C940000EF92FF920F933B
:100120001F93DF93CF93CDB7DEB7A8970FB6F894A0
:10013000DEBF0FBECDBF80E049E350E360E070E07A
:1001400028E001E092E0E92E0E94200182E040E0F8
:1001500052EC61E070E028E000E0EE24E3940E94BD
:10016000200183E040E052EC61E070E028E00E9472
:1001700020018E010F5F1F4F85E1E82EF12CEC0E60
:10018000FD1E80E00E94B30180E00E94200280E01A
:1001900062E042E00E946E0280E061E20E94A402FE
:1001A00080E060E072E00E94810180E066E142E070
:1001B0000E946E0280E060E20E94A40280E0B8012A
:1001C0000E94C10182E0B8010E94810182E065E1E4
:1001D00072E00E94810183E0B7010E94C10180E0CA
:1001E00065E043E00E946E0280E0B7010E94810159
:1001F000C8010E94DE02B80140E10E94390380E09C
:1002000065E044E00E946E0280E062E20E94A40287
:1002100080E067E172E00E94810180E0B8010E9405
:10022000810180E065E045E00E946E0280E06DE1C2
:1002300072E00E94810180E0B8010E948101A1CF9B
:10024000AF92BF92CF92DF92EF920F93CF93DF9353
:100250005A016B01922F2E2DE82FF0E0EE0FFF1FB9
:10026000E15DFD4FC081D18188E18983013021F0BA
:10027000023021F482E003C083E001C080E0E82F77
:10028000F0E054E0EE0FFF1F5A95E1F760E070E0F8
:10029000213011F061E070E043E0660F771F4A956E
:1002A000E1F78E2F862B8A83993039F48A81866014
:1002B0008A8389818460898308C02A81892F90E09C
:1002C0000597880F991F282B2A8384E0AA0CBB1C52
:1002D000CC1CDD1C8A95D1F760E074E284EF90E0DD
:1002E000A60195010E94FD03215030403D832C83DF
:1002F000DF91CF910F91EF90DF90CF90BF90AF90B3
:100300000895CF93DF93EB01E82FF0E0EE0FFF1F8E
:10031000E15DFD4F08C0A081B1818C9185FFFDCFCB
:10032000219616969C9398819923A9F7DF91CF91F6
:100330000895E82FF0E0EE0FFF1FE15DFD4F019003
:10034000F081E02D808185FFFDCF66830895E82F41
:10035000F0E0EE0FFF1FE15DFD4F0190F081E02D19
:10036000808180780895E82FF0E0EE0FFF1FE15DB7
:10037000FD4F0190F081E02D808187FFFDCF8681C8
:100380000895CF93DF93AB0120E0A82FB0E0ED01FB
:10039000CC0FDD1FC15DDD4F38E060E2E881F981FF
:1003A000808187FFFDCF96819830D1F42223B1F36D
:1003B0002150FA01E20FF11D1082E881F98180815C
:1003C00085FFFDCF3683E881F981808185FFFDCFF0
:1003D0006683E881F981808185FFFDCF3683DECF9A
:1003E000808185FFFDCF96839D3011F09A30F9F41E
:1003F000420F511DFA011082FD01EE0FFF1FE15D5A
:10040000FD4F0190F081E02D808185FFFDCF8DE0D3
:100410008683AA0FBB1FA15DBD4FED91FC9180812A
:1004200085FFFDCF8AE08683DF91CF9108952F3736
:1004300008F0B4CFFA01E20FF11D90832F5FAECF29
:100440001F93182F63E272E00E948101812F68E2FE
:1004500072E00E9481011F910895382F262F643683
:10046000B0F0E82FF0E0EE0FFF1FE15DFD4F0190CF
:10047000F081E02D808185FFFDCF822F64E60E9410
:10048000DD03805D8683822F0E94DD03292F2A30C1
:10049000B0F0E32FF0E0EE0FFF1FE15DFD4F0190A4
:1004A000F081E02D808185FFFDCF822F6AE00E94E0
:1004B000DD03805D8683822F0E94DD03292FE32FD9
:1004C000F0E0EE0FFF1FE15DFD4F0190F081E02DA8
:1004D000808185FFFDCF205D26830895FF920F93D5
:1004E0001F93CF93DF93082FF62E142F6CE272E048
:1004F0000E9481011F5F802F612F0E942D02C02F5B
:10050000D0E0FE01EE0FFF1FE15DFD4F0190F08195
:10051000E02D808185FFFDCF8BE38683F394802FD0
:100520006F2D0E942D02CC0FDD1FC15DDD4FE881D4
:10053000F981808185FFFDCF88E48683DF91CF91AB
:100540001F910F91FF9008950F931F93182F062F5F
:100550006CE272E00E948101A12FB0E0FD01EE0F7C
:10056000FF1FE15DFD4F0190F081E02D808185FF4F
:10057000FDCF802F6AE00E94DD03805D8683FD0150
:10058000EE0FFF1FE15DFD4F0190F081E02D8081B6
:1005900085FFFDCF802F6AE00E94DD03905D96838A
:1005A000AA0FBB1FA15DBD4FED91FC91808185FF1E
:1005B000FDCF8DE686831F910F910895EF92FF92F4
:1005C0000F931F93DF93CF93CDB7DEB7582F792FBB
:1005D000EDB6FEB69C01F90101C031966E2F651B88
:1005E00080818823D1F78DB79EB7861B91090FB6FE
:1005F000F8949EBF0FBE8DBF0DB71EB70F5F1F4F84
:10060000462F4150852F972F9C01D90107C0F80133
:10061000E40FF11D80538083415011968C91882303
:10062000B1F721E030E050E040E013C0F801E40F02
:10063000F11D8081829F802D1124580FC901880FE0
:10064000991F73E0220F331F7A95E1F7280F391FA6
:100650004F5F461758F3852F90E00FB6F894FEBE13
:100660000FBEEDBECF91DF911F910F91FF90EF90E4
:1006700008955F926F927F928F929F92AF92BF92F6
:10068000CF92DF92EF92FF920F931F93DF93CF935E
:10069000CDB7DEB760970FB6F894DEBF0FBECDBF03
:1006A0007C016B01942E6DB67EB68DB65EB6DE0112
:1006B0001196E7E3F2E080E101900D928150E1F7BD
:1006C000E114F10469F480E3F60180831182282D9E
:1006D000352DC9010FB6F8949EBF0FBE8DBF52C015
:1006E000C70140E0692D70E00E94E903CB014F5F34
:1006F00061157105B9F7042F10E08DB79EB7801B07
:10070000910B0FB6F8949EBF0FBE8DBFADB6BEB6AF
:100710000894A11CB11C4150E42FFF27E7FDF09580
:100720004F5FEA0DFB1D9701C901692D70E00E9422
:10073000E9038083C901692D70E00E94E9039B01F0
:1007400031976115710581F7D60190E09E012F5F09
:100750003F4F0AC0F501E90FF11D8081F901E80F53
:10076000F11D80818D939F5F9417A0F30C0D1D1DCB
:10077000F8011082882D952D9C010FB6F8943EBF8C
:100780000FBE2DBF0FB6F8947EBE0FBE6DBE609635
:100790000FB6F894DEBF0FBECDBFCF91DF911F9192
:1007A0000F91FF90EF90DF90CF90BF90AF909F9010
:1007B0008F907F906F905F900895991B79E004C0AF
:1007C000991F961708F0961B881F7A95C9F7809590
:1007D0000895AA1BBB1B51E107C0AA1FBB1FA61788
:1007E000B70710F0A61BB70B881F991F5A95A9F7DA
:1007F00080959095BC01CD010895A1E21A2EAA1B07
:10080000BB1BFD010DC0AA1FBB1FEE1FFF1FA217C0
:10081000B307E407F50720F0A21BB30BE40BF50BBD
:10082000661F771F881F991F1A9469F76095709546
:10083000809590959B01AC01BD01CF010895F8947E
:02084000FFCFE8
:10084200496E74726F6475636520756E206E3F6DBC
:1008520065726F3A000D004865783A200042696E71
:100862003A20001B5B324A001B5B48001B5B00C046
:1008720000C800D0003001303132333435363738D9
:080882003941424344454600A0
:00000001FF
