:100000000C9472000C9493000C9493000C94930045
:100010000C9493000C9493000C9493000C94930014
:100020000C9493000C9493000C9493000C94930004
:100030000C9493000C9493000C9493000C949300F4
:100040000C9493000C9493000C9493000C949300E4
:100050000C9493000C9493000C9493000C949300D4
:100060000C9493000C94C5010C9493010C94930090
:100070000C9493000C9493000C9493000C949300B4
:100080000C9493000C9493000C9493000C949300A4
:100090000C9493000C9493000C9493000C94930094
:1000A0000C9493000C9493000C9493000C94930084
:1000B0000C9493000C9493000C9493000C94930074
:1000C0000C9493000C9493000C9493000C94930064
:1000D0000C9493000C9493000C9493000C94930054
:1000E0000C94930011241FBECFEFD1E2DEBFCDBF31
:1000F00000E00CBF12E0A0E0B2E0ECE3F8E000E0CA
:100100000BBF02C007900D92A834B107D9F714E0D5
:10011000A8E4B2E001C01D92A835B107E1F70E9442
:1001200095000C941C040C940000CF92DF92EF9287
:10013000FF920F931F93DF93CF93CDB7DEB7A897AE
:100140000FB6F894DEBF0FBECDBF80E049E350E3A9
:1001500060E070E028E001E092E0E92E0E943101C9
:1001600082E040E052EC61E070E028E000E0EE2444
:10017000E3940E94310183E040E052EC61E070E0E2
:1001800028E00E9431017E010894E11CF11C85E108
:10019000C82ED12CCC0EDD1E80E00E94360280E0FD
:1001A0000E94CA0280E062E042E00E94240380E0F4
:1001B00061E20E94D70280E060E072E00E94560295
:1001C00080E066E142E00E94240380E060E20E9459
:1001D000D70280E0B7010E94670282E0B7010E9467
:1001E000560282E065E172E00E94560283E0B601A9
:1001F0000E94670280E065E043E00E94240380E003
:10020000B6010E945602C7010E94D0038C01B701BB
:1002100040E10E94440380E065E044E00E94240342
:1002200080E062E20E94D70280E067E172E00E9413
:10023000560280E0B7010E945602C801B70142E0B1
:100240000E94440380E065E045E00E94240380E0D2
:100250006DE172E00E94560280E0B7010E945602F2
:100260009BCFAF92BF92CF92DF92EF920F93CF933B
:10027000DF935A016B01922F2E2DE82FF0E0EE0F45
:10028000FF1FE05CFD4FC081D18188E98983013087
:1002900021F0023021F482E003C083E001C080E05D
:1002A000E82FF0E054E0EE0FFF1F5A95E1F760E011
:1002B00070E0213011F061E070E043E0660F771FDD
:1002C0004A95E1F78E2F862B8A83993039F48A81FB
:1002D00086608A8389818460898308C02A81892F06
:1002E00090E00597880F991F282B2A8384E0AA0C99
:1002F000BB1CCC1CDD1C8A95D1F760E074E284EF56
:1003000090E0A60195010E94FA03215030403D8300
:100310002C837894DF91CF910F91EF90DF90CF9065
:10032000BF90AF9008951F920F920FB60F920BB629
:100330000F9211248F939F93EF93FF9390918802D4
:1003400080918902981789F0E0918902F0E0E85BDA
:10035000FD4F80818093C6008091890290E00196D4
:100360008F7390708093890205C08091C1008F7D4A
:100370008093C100FF91EF919F918F910F900BBEE1
:100380000F900FBE0F901F9018951F920F920FB6EF
:100390000F920BB60F9211242F933F938F939F933D
:1003A000EF93FF939091C60080919003282F30E047
:1003B0002F5F3F4F2F73307080919103821741F070
:1003C000E0919003F0E0E05BFC4F9083209390037A
:1003D000FF91EF919F918F913F912F910F900BBEC5
:1003E0000F900FBE0F901F901895282F82E4289F22
:1003F000F0011124E85BFD4FE05CFF4F9081E05479
:10040000F0409F5F9F73DF01AF5BBF4F8C919817E8
:10041000E9F3DF01A05CBF4F8C91E80FF11D608311
:100420009C93E22FF0E0EE0FFF1FE05CFD4F019088
:10043000F081E02D818185FD04C08181806281830E
:1004400008958091C1008F7D8093C100089592E44A
:10045000899FF0011124E85BFD4FE05CFF4F919113
:10046000808120E0981321E0822F0895CF93DF93BD
:1004700092E4899FF0011124E05BFC4FEF01C05C26
:10048000DF4FDF01AF5BBF4F98818C919817E1F38D
:100490008C91E80FF11D80812C9130E02F5F3F4F50
:1004A0002F7330702C93DF91CF9108951F93CF93CA
:1004B000DF93182FEB0104C02196812F0E94F501D4
:1004C00068816623C9F7DF91CF911F910895EF925C
:1004D000FF920F931F93CF93DF93F82EEB0100E071
:1004E00057C0EE24E3948F2D0E943602182F8830D7
:1004F000A1F40023C1F30150FE01E00FF11D1082B1
:100500008F2D68E00E94F5018F2D60E20E94F501B9
:100510008F2D68E00E94F501E6CF8F2D612F0E949C
:10052000F5011D3011F01A3091F4C00FD11D188261
:100530008F2D6DE00E94F5018F2D6AE00E94F5017C
:10054000DF91CF911F910F91FF90EF9008951E3290
:1005500041F2EE2029F0FE01E00FF11D10820F5F45
:10056000E02FF0E0033128F4EC0FFD1F10830F5F44
:100570000FC0EC0FFD1F10828F2D68E00E94F50167
:100580008F2D60E20E94F5018F2D68E00E94F50139
:10059000EE24A9CF1F93182F63E272E00E94560247
:1005A000812F68E272E00E9456021F9108950F9316
:1005B0001F93182F062F6CE272E00E945602802FC4
:1005C0006AE00E94EE03682F605D812F0E94F501B2
:1005D000802F6AE00E94EE03905D812F692F0E94B8
:1005E000F501812F6DE60E94F5011F910F9108958D
:1005F0000F931F93082F162F643670F0862F64E632
:100600000E94EE03682F605D802F0E94F501812F0C
:1006100064E60E94EE03192F1A3070F0812F6AE011
:100620000E94EE03682F605D802F0E94F501812FEC
:100630006AE00E94EE03192F105D802F612F0E9447
:10064000F5011F910F910895FF920F931F93182F9B
:10065000F62E042F6CE272E00E9456020F5F812F8B
:10066000602F0E94F802812F6BE30E94F501F39442
:10067000812F6F2D0E94F802812F68E40E94F501FE
:100680001F910F91FF9008950F931F93DF93CF93C6
:10069000CDB7DEB7A1970FB6F894DEBF0FBECDBFC2
:1006A0004031A1F5DE015196EFE2F2E021E1019047
:1006B0000D922150E1F7009769F19C0190E0AE01A5
:1006C0004F5F5F4F8E010F5E1F4FFA01E90FF11D63
:1006D000D901AF70B070A00FB11F8C9180839F5F64
:1006E000F4E036952795FA95E1F72115310569F77C
:1006F000FA01E90FF11DDB0102C080818D93319772
:10070000EC17FD07D1F7690F711D3DC04230E9F5C7
:10071000009729F480E3FB018083118236C020E03A
:10072000AE014F5E5F4F80FD02C030E301C031E398
:10073000FA01E20FF11D30832F5F969587950097A0
:1007400091F706C0FC01E20FF11D30832F5F03C05B
:10075000CE01419630E32031A8F3422F4150A42F1F
:10076000BB27A7FDB095A80FB91F562FCB01FC01E1
:1007700004C08C918193415011978E2F851B47FFA8
:10078000F8CF680F711DFB011082A1960FB6F89487
:10079000DEBF0FBECDBFCF91DF911F910F910895A6
:1007A000FC0120E030E015C0842F80538A3080F4B3
:1007B000C901B3E0880F991FBA95E1F7220F331FE3
:1007C000820F931F242F30E020533040280F391F11
:1007D00031964081442341F7C9010895991B79E07E
:1007E00004C0991F961708F0961B881F7A95C9F7C1
:1007F00080950895A1E21A2EAA1BBB1BFD010DC016
:10080000AA1FBB1FEE1FFF1FA217B307E407F507C0
:1008100020F0A21BB30BE40BF50B661F771F881F9C
:10082000991F1A9469F760957095809590959B0132
:0C083000AC01BD01CF010895F894FFCF8A
:10083C00496E74726F6475636520756E206EFA6D07
:10084C0065726F3A000D004865783A200042696E77
:10085C003A20001B5B324A001B5B48001B5B0030DC
:10086C00313233343536373839414243444546000A
:08087C00C000C800D0003001EB
:00000001FF
