:100000000C9472000C948B000C948B000C948B005D
:100010000C948B000C948B000C948B000C948B0034
:100020000C948B000C948B000C948B000C948B0024
:100030000C948B000C948B000C948B000C948B0014
:100040000C948B000C948B000C948B000C948B0004
:100050000C948B000C948B000C948B000C948B00F4
:100060000C948B000C948B000C948B000C948B00E4
:100070000C948B000C948B000C948B000C948B00D4
:100080000C948B000C948B000C948B000C948B00C4
:100090000C948B000C948B000C948B000C948B00B4
:1000A0000C948B000C948B000C948B000C948B00A4
:1000B0000C948B000C948B000C948B000C948B0094
:1000C0000C948B000C948B000C948B000C948B0084
:1000D0000C948B000C948B000C948B000C948B0074
:1000E0000C948B0011241FBECFEFD1E2DEBFCDBF39
:1000F00000E00CBF12E0A0E0B2E0E6E6F1E000E0D4
:100100000BBF02C007900D92A030B107D9F70E9433
:10011000A3000C94B1000C940000DF93CF93CDB7F3
:10012000DEB7E4E4F0E082E48083E7E4F0E08CE72B
:100130008083E5E4F0E083E08083E6E4F0E0108291
:10014000CF91DF910895DF93CF93CDB7DEB70E94B3
:100150008D00A4E2B0E0E4E2F0E0808180688C935E
:06016000FFCFF894FFCF71
:00000001FF
