:100000000C9472000C9493000C9493000C94930045
:100010000C9493000C9493000C9493000C94930014
:100020000C9493000C9493000C9493000C94930004
:100030000C9493000C9493000C9493000C949300F4
:100040000C9493000C9493000C9493000C949300E4
:100050000C9493000C9493000C9493000C949300D4
:100060000C9493000C9493000C9493000C949300C4
:100070000C9493000C9493000C9493000C949300B4
:100080000C9493000C9493000C9493000C949300A4
:100090000C9493000C9493000C9493000C94930094
:1000A0000C9493000C9493000C9493000C94930084
:1000B0000C9493000C9493000C9493000C94930074
:1000C0000C9493000C9493000C9493000C94930064
:1000D0000C9493000C9493000C9493000C94930054
:1000E0000C94930011241FBECFEFD1E2DEBFCDBF31
:1000F00000E00CBF12E0A0E0B2E0E8E7F3E000E0CF
:100100000BBF02C007900D92A031B107D9F712E0E2
:10011000A0E1B2E001C01D92A431B107E1F70E9455
:1001200002010C94BA010C9400008798869A8E9A6A
:100130000895CF93DF937F992AC084E190E00E94D5
:1001400090017F9926C0C0E0D0E081E090E00E945D
:1001500090017F9913C0219683E0C83ED807A9F784
:100160007F9906C081E090E00E9490017F9BFACFCA
:1001700084E190E00E94900182E00CC084E190E074
:100180000E9490018FB1881F8827881F03C080E0DC
:1001900001C080E0DF91CF910895CF92DF92FF926E
:1001A0000F931F93DF93CF930F92CDB7DEB7F82E47
:1001B000198208E012E00F2EF0E0CF2EF2E0DF2EE1
:1001C000F02D13C08981F801E80FF11D808180BBFB
:1001D0008981F601E80FF11D808181BB84E690E002
:1001E0000E94900189818F5F89838981883010F412
:1001F000FF2041F31982F9CF813019F4862F0E9434
:10020000CD0008957F928F929F92AF92BF92CF922E
:10021000DF92EF92FF920F931F93CF93DF93EE2421
:10022000FF24C0E0D0E010E0CC24DD240F2EF3E06A
:10023000BF2EF02DAA246894A2F80F2EF5E09F2E71
:10024000F02D0F2EF6E08F2EF02D7724689471F8A4
:100250000E949900813019F0823011F410C01F5FA4
:10026000123079F1133030F4112349F0113009F0D4
:100270003FC019C0133041F11430D1F52BC081E0DB
:100280000E94B301C82FD0E02196CC0FDD1FCC0F08
:10029000DD1FCE01880F991F880F991FC80FD91F26
:1002A000760111E025C00E949900082F81E0602F9F
:1002B0000E94FC000130E1F481B3807481BB172DF2
:1002C00017C0219781F014C0209779F40894E11C9D
:1002D000F11C0EC0C7018C0F9D1F21E08D329207CB
:1002E00030F0182D05C01B2D03C01A2D01C0192D8B
:1002F00081E090E00E9490018091100290911102A3
:10030000A0911202B09113020196A11DB11D80931C
:10031000100290931102A0931202B093130298CF8F
:10032000803049F0813041F00E94A801019781306E
:10033000D9F7813009F0089502E01BE0000021EFB9
:100340002A95F1F71A95D9F70A95B9F70C949B01FC
:1003500003E711E000002CE22A95F1F71A95D9F78E
:100360000A95B9F7089505EA809F1DE4010E802DD6
:0803700011240895F894FFCF59
:1003780042414442414448444343464645454C4C27
:00000001FF
