:100000000C9472000C948B000C948B000C948B005D
:100010000C948B000C948B000C948B000C948B0034
:100020000C948B000C948B000C948B000C948B0024
:100030000C948B000C948B000C948B000C948B0014
:100040000C948B000C948B000C948B000C948B0004
:100050000C948B000C948B000C948B000C948B00F4
:100060000C948B000C948B000C948B000C948B00E4
:100070000C948B000C948B000C948B000C948B00D4
:100080000C948B000C948B000C948B000C948B00C4
:100090000C948B000C948B000C948B000C948B00B4
:1000A0000C948B000C948B000C948B000C948B00A4
:1000B0000C948B000C948B000C948B000C948B0094
:1000C0000C948B000C948B000C948B000C948B0084
:1000D0000C948B000C948B000C948B000C948B0074
:1000E0000C948B0011241FBECFEFD1E2DEBFCDBF39
:1000F00000E00CBF12E0A0E0B2E0ECE7F4E000E0CA
:100100000BBF02C007900D92AE32B107D9F70E9423
:100110008D000C943C020C940000EF92FF920F9320
:100120001F93DF93CF93CDB7DEB7A8970FB6F894A0
:10013000DEBF0FBECDBF80E049E350E360E070E07A
:1001400028E001E092E0E92E0E94F10082E040E028
:1001500052EC61E070E028E000E0EE24E3940E94BD
:10016000F10083E040E052EC61E070E028E00E94A2
:10017000F1008E010F5F1F4F85E1E82EF12CEC0E90
:10018000FD1E80E00E94810180E060E072E00E943C
:100190005D0180E0B8010E948F0182E0B8010E94F9
:1001A0005D0182E065E172E00E945D0183E0B701DC
:1001B0000E948F0180E0B7010E945D0180E067E14D
:1001C00072E00E945D0180E0B8010E945D0180E064
:1001D0006DE172E00E945D0180E0B8010E945D0166
:1001E000D0CFAF92BF92CF92DF92EF920F93CF9387
:1001F000DF935A016B013E2DE82FF0E0EE0FFF1F59
:10020000EB5DFD4FC081D181013019F0023019F44E
:1002100004C093E003C090E001C092E0273041F0B9
:10022000283041F0263011F421E005C020E003C061
:1002300022E001C023E088E18A83892F90E044E036
:10024000880F991F4A95E1F760E070E0313011F0B6
:1002500061E070E093E0660F771F9A95E1F7862BD7
:10026000220F282B298384E0AA0CBB1CCC1CDD1C8C
:100270008A95D1F760E074E284EF90E0A6019501E1
:100280000E941A02215030403D832C83DF91CF9190
:100290000F91EF90DF90CF90BF90AF900895E82F2F
:1002A000F0E0EE0FFF1FEB5DFD4F0190F081E02DC0
:1002B000808185FFFDCF66830895CF93DF93EB01A7
:1002C000E82FF0E0EE0FFF1FEB5DFD4F08C0A081AF
:1002D000B1818C9185FFFDCF16969C9321969881D4
:1002E0009923A9F7DF91CF910895E82FF0E0EE0F61
:1002F000FF1FEB5DFD4F0190F081E02D8081807844
:100300000895E82FF0E0EE0FFF1FEB5DFD4F019029
:10031000F081E02D808187FFFDCF868108951F93B6
:10032000CF93DF93EB0140E0282F30E0D901AA0FF3
:10033000BB1FAB5DBD4F58E010E263E272E0ED9190
:10034000FC911197808187FFFDCF96819A3011F043
:100350009D3011F5442399F3C40FD11D1882F90182
:10036000EE0FFF1FEB5DFD4F0190F081E02D8081CE
:1003700085FFFDCF8AE08683220F331F2B5D3D4F23
:10038000D901ED91FC91808185FFFDCF8DE08683C1
:10039000DF91CF911F9108959830E1F4442379F2D1
:1003A0004150FE01E40FF11D1082ED91FC91119777
:1003B000808185FFFDCF5683ED91FC91119780815F
:1003C00085FFFDCF1683ED91FC911197808185FF0C
:1003D000FDCF2EC09E3229F4FE01E40FF11D608393
:1003E0004F5FED91FC911197808185FFFDCF968342
:1003F000E42FF0E0443128F4EC0FFD1F90834F5FB1
:100400009ECFEC0FFD1F1082ED91FC911197808122
:1004100085FFFDCF5683ED91FC911197808185FF7B
:10042000FDCF1683ED91FC911197808185FFFDCF63
:10043000568385CFA1E21A2EAA1BBB1BFD010DC05E
:10044000AA1FBB1FEE1FFF1FA217B307E407F50784
:1004500020F0A21BB30BE40BF50B661F771F881F60
:10046000991F1A9469F760957095809590959B01F6
:0C047000AC01BD01CF010895F894FFCF4E
:10047C00496E74726F6475636520756E206E3F6D86
:10048C0065726F3A000D004865783A200042696E3B
:0E049C003A20000000C000C800D0003001006F
:00000001FF
