:100000000C9472000C948B000C948B000C948B005D
:100010000C948B000C948B000C948B000C948B0034
:100020000C948B000C948B000C948B000C948B0024
:100030000C948B000C948B000C948B000C948B0014
:100040000C948B000C948B000C948B000C948B0004
:100050000C948B000C948B000C948B000C948B00F4
:100060000C948B000C948B000C948B000C948B00E4
:100070000C948B000C948B000C948B000C948B00D4
:100080000C948B000C948B000C948B000C948B00C4
:100090000C948B000C948B000C948B000C948B00B4
:1000A0000C948B000C948B000C948B000C948B00A4
:1000B0000C948B000C948B000C948B000C948B0094
:1000C0000C948B000C948B000C948B000C948B0084
:1000D0000C948B000C948B000C948B000C948B0074
:1000E0000C948B0011241FBECFEFD1E2DEBFCDBF39
:1000F00000E00CBF12E0A0E0B2E0ECEFF3E000E0C3
:100100000BBF02C007900D92AE32B107D9F70E9423
:100110008D000C94FC010C940000EF92FF920F9361
:100120001F93DF93CF93CDB7DEB7A8970FB6F894A0
:10013000DEBF0FBECDBF80E049E350E360E070E07A
:1001400028E001E092E0E92E0E94F60082E040E023
:1001500052EC61E070E028E000E0EE24E3940E94BD
:10016000F60083E040E052EC61E070E028E00E949D
:10017000F6008E010F5F1F4F85E1E82EF12CEC0E8B
:10018000FD1E80E00E94A60180E060E072E00E9417
:10019000820180E065E172E00E94820180E0B801A6
:1001A0000E94B40182E0B8010E94820182E067E10E
:1001B00072E00E94820183E0B7010E94B40180E0F6
:1001C000B7010E94820180E069E172E00E94820131
:1001D00080E0B8010E94820180E06FE172E00E943D
:1001E000820180E0B8010E948201CBCFAF92BF9222
:1001F000CF92DF92EF920F931F93DF93CF9300D0B4
:10020000CDB7DEB75A016B01902F3E2DE82FF0E0FD
:10021000EE0FFF1FEB5DFD4F0081118188E1F801BA
:100220008283913019F0923019F404C093E003C036
:1002300090E001C092E0F80181819295907F982B27
:10024000918380E0313009F481E08983F801918164
:100250008981880F880F880F892B8183263069F068
:10026000273018F42530A9F405C0273051F0283084
:1002700081F40BC0F80181810BC0F801818182609B
:1002800007C0F8018181846003C0F8018181866024
:10029000818383E0AA0CBB1CCC1CDD1C8A95D1F7A2
:1002A00060E074E284EF90E0A60195010E94DA011B
:1002B000215030403B832A832A813B81F80184818D
:1002C0009581822B932B9583848382E080830F908A
:1002D0000F900F90CF91DF911F910F91EF90DF90D2
:1002E000CF90BF90AF900895E82FF0E0EE0FFF1F82
:1002F000EB5DFD4F0190F081E02D808185FFFDCF0A
:1003000066830895CF93DF93EB01E82FF0E0EE0FC3
:10031000FF1FEB5DFD4F08C0A081B1818C9185FF6F
:10032000FDCF16969C93219698819923A9F7DF918A
:10033000CF910895E82FF0E0EE0FFF1FEB5DFD4F2A
:100340000190F081E02D808180780895E82FF0E021
:10035000EE0FFF1FEB5DFD4F0190F081E02D8081DE
:1003600087FFFDCF86810895CF93DF93EB01A82F00
:10037000B0E0AA0FBB1FAB5DBD4FED91FC91119793
:100380009681808187FFFDCF9A30D9F39830C9F3E9
:100390009E3211F020E002C0188221E0ED91FC9124
:1003A0001197808185FFFDCF9683FE01E20FF11D3D
:1003B0009083E3CFA1E21A2EAA1BBB1BFD010DC047
:1003C000AA1FBB1FEE1FFF1FA217B307E407F50705
:1003D00020F0A21BB30BE40BF50B661F771F881FE1
:1003E000991F1A9469F760957095809590959B0177
:0C03F000AC01BD01CF010895F894FFCFCF
:1003FC00496E74726F6475636520756E206E3F6D07
:10040C0065726F3A000A000D004865783A20004288
:0E041C00696E3A2000C000C800D00030010018
:00000001FF
