:100000000C9472000C9493000C9493000C94930045
:100010000C9493000C9493000C9493000C94930014
:100020000C9493000C9493000C9493000C94930004
:100030000C9493000C9493000C9493000C949300F4
:100040000C9493000C9493000C9493000C949300E4
:100050000C9493000C94A5000C9493000C949300C2
:100060000C9493000C9493000C9493000C949300C4
:100070000C9493000C9493000C9493000C949300B4
:100080000C9493000C9493000C9493000C949300A4
:100090000C9493000C9493000C9493000C94930094
:1000A0000C9493000C9493000C9493000C94930084
:1000B0000C9493000C9493000C9493000C94930074
:1000C0000C9493000C9493000C9493000C94930064
:1000D0000C9493000C9493000C9493000C94930054
:1000E0000C94930011241FBECFEFD1E2DEBFCDBF31
:1000F00000E00CBF12E0A0E0B2E0E0EAF1E000E0D6
:100100000BBF02C007900D92A030B107D9F712E0E3
:10011000A0E0B2E001C01D92A230B107E1F70E9459
:10012000CA000C94CE000C940000789416BC84B5E0
:10013000816084BDEEE6F0E080818260808385B5D9
:10014000836085BD89EF87BD08951F920F920FB61A
:100150000F9211242F938F939F938091000290917F
:1001600001020196909301028093000280910002A7
:1001700090910102845F914029F41F9A109201022C
:10018000109200029F918F912F910F900FBE0F90B0
:100190001F901895279A0E949500FFCFF894FFCFE3
:00000001FF
