:100000000C9472000C9493000C9493000C94930045
:100010000C9493000C9493000C9493000C94930014
:100020000C9493000C9493000C9493000C94930004
:100030000C9493000C9493000C9493000C949300F4
:100040000C9493000C9493000C9493000C949300E4
:100050000C9493000C9493000C9493000C94A200C5
:100060000C9493000C9493000C9493000C949300C4
:100070000C9493000C9493000C9493000C949300B4
:100080000C9493000C9493000C9493000C949300A4
:100090000C9493000C9493000C9493000C94930094
:1000A0000C9493000C9493000C9493000C94930084
:1000B0000C9493000C9493000C9493000C94930074
:1000C0000C9493000C9493000C9493000C94930064
:1000D0000C9493000C9493000C9493000C94930054
:1000E0000C94930011241FBECFEFD1E2DEBFCDBF31
:1000F00000E00CBF12E0A0E0B2E0EEE9F1E000E0C9
:100100000BBF02C007900D92A030B107D9F712E0E3
:10011000A0E0B2E001C01D92A230B107E1F70E9459
:10012000C9000C94CD000C940000789414BC85B5E3
:10013000856085BDEEE6F0E080818160808380EFA0
:1001400086BD08951F920F920FB60F9211242F9320
:100150008F939F938091000290910102019690935A
:100160000102809300028091000290910102885E5A
:10017000934029F41F9A109201021092000280EF1E
:1001800086BD9F918F912F910F900FBE0F901F9062
:0E0190001895279A0E949500FFCFF894FFCF94
:00000001FF
