:100000000C9472000C948B000C948B000C948B005D
:100010000C948B000C948B000C948B000C948B0034
:100020000C948B000C948B000C948B000C948B0024
:100030000C948B000C948B000C948B000C948B0014
:100040000C948B000C948B000C948B000C948B0004
:100050000C948B000C948B000C948B000C948B00F4
:100060000C948B000C948B000C948B000C948B00E4
:100070000C948B000C948B000C948B000C948B00D4
:100080000C948B000C948B000C948B000C948B00C4
:100090000C948B000C948B000C948B000C948B00B4
:1000A0000C948B000C948B000C948B000C948B00A4
:1000B0000C948B000C948B000C948B000C948B0094
:1000C0000C948B000C948B000C948B000C948B0084
:1000D0000C948B000C948B000C948B000C948B0074
:1000E0000C948B0011241FBECFEFD1E2DEBFCDBF39
:1000F00000E00CBF12E0A0E0B2E0ECECF2E000E0C7
:100100000BBF02C007900D92AC31B107D9F70E9426
:10011000F8000C9464010C940000E7E0F1E08081A9
:100120008E7F8083699A08950F931F93082F71988B
:100130000E941C0110E000FF02C0719A01C071987A
:100140000E941C011F5F183011F00695F4CF719AC0
:100150000E941C011F910F9108951F93CF93DF936D
:10016000EC0110E003C00E9494001F5FFE01E10F4C
:10017000F11D80818823B9F7DF91CF911F910895F8
:10018000CF93DF938091060180FD2EC084E190E043
:100190000E9441018091060180FD26C0C0E0D0E0B0
:1001A00081E090E00E9441018091060180FD14C031
:1001B000219683E0C83ED80799F704C081E090E01B
:1001C0000E9441018091060180FFF8CF84E190E018
:1001D0000E94410182E009C084E190E00E94410157
:1001E00080910601817001C080E0DF91CF91089578
:1001F0008091C100877F8093C1008AE090E00E94D7
:100200004101809107018E7F80930701699A809157
:1002100007018E7F80930701699A0E94C000813098
:1002200019F08230D1F703C080E092E002C08EE086
:1002300092E00E94AD00F1CF0000000065E057E0C1
:1002400000000000000048E05A9500000000E1F7BF
:1002500057E0000000004A95B9F76A95000081F761
:10026000089541EF000050E900000000000068E937
:10027000000000006A95F1F75A95C9F74A9599F779
:100280000895803049F0813041F00E945901019772
:100290008130D9F7813009F0089502E01BE00000B9
:1002A00021EF2A95F1F71A95D9F70A95B9F70C9429
:1002B0004C0103E711E000002CE22A95F1F71A95B2
:0C02C000D9F70A95B9F70895F894FFCF1C
:1002CC0053686F72742070726573730D0A004C6FF3
:0C02DC006E67207072657373210D0A00BC
:00000001FF
